{
  "_format": "hh-sol-artifact-1",
  "contractName": "Upload",
  "sourceName": "contracts/Upload.sol",
  "abi": [
    {
      "inputs": [
        {
          "internalType": "address",
          "name": "_user",
          "type": "address"
        },
        {
          "internalType": "string",
          "name": "url",
          "type": "string"
        }
      ],
      "name": "add",
      "outputs": [],
      "stateMutability": "nonpayable",
      "type": "function"
    },
    {
      "inputs": [
        {
          "internalType": "address",
          "name": "user",
          "type": "address"
        }
      ],
      "name": "allow",
      "outputs": [],
      "stateMutability": "nonpayable",
      "type": "function"
    },
    {
      "inputs": [
        {
          "internalType": "address",
          "name": "user",
          "type": "address"
        }
      ],
      "name": "disAllow",
      "outputs": [],
      "stateMutability": "nonpayable",
      "type": "function"
    },
    {
      "inputs": [
        {
          "internalType": "address",
          "name": "_user",
          "type": "address"
        }
      ],
      "name": "display",
      "outputs": [
        {
          "internalType": "string[]",
          "name": "",
          "type": "string[]"
        }
      ],
      "stateMutability": "view",
      "type": "function"
    },
    {
      "inputs": [],
      "name": "shareAccess",
      "outputs": [
        {
          "components": [
            {
              "internalType": "address",
              "name": "user",
              "type": "address"
            },
            {
              "internalType": "bool",
              "name": "access",
              "type": "bool"
            }
          ],
          "internalType": "struct Upload.Access[]",
          "name": "",
          "type": "tuple[]"
        }
      ],
      "stateMutability": "view",
      "type": "function"
    }
  ],
  "bytecode": "0x608060405234801561001057600080fd5b50611411806100206000396000f3fe608060405234801561001057600080fd5b50600436106100575760003560e01c806336d6da551461005c578063bc8bef8114610078578063cf8aacdd14610096578063eb39113f146100b2578063ff9913e8146100e2575b600080fd5b61007660048036038101906100719190610cba565b6100fe565b005b610080610173565b60405161008d9190610e1e565b60405180910390f35b6100b060048036038101906100ab9190610e40565b61027c565b005b6100cc60048036038101906100c79190610e40565b6104a2565b6040516100d99190610fae565b60405180910390f35b6100fc60048036038101906100f79190610e40565b6106b8565b005b6000808373ffffffffffffffffffffffffffffffffffffffff1673ffffffffffffffffffffffffffffffffffffffff1681526020019081526020016000208190806001815401808255809150506001900390600052602060002001600090919091909150908161016e91906111e6565b505050565b6060600160003373ffffffffffffffffffffffffffffffffffffffff1673ffffffffffffffffffffffffffffffffffffffff168152602001908152602001600020805480602002602001604051908101604052809291908181526020016000905b82821015610273578382906000526020600020016040518060400160405290816000820160009054906101000a900473ffffffffffffffffffffffffffffffffffffffff1673ffffffffffffffffffffffffffffffffffffffff1673ffffffffffffffffffffffffffffffffffffffff1681526020016000820160149054906101000a900460ff161515151581525050815260200190600101906101d4565b50505050905090565b6000600260003373ffffffffffffffffffffffffffffffffffffffff1673ffffffffffffffffffffffffffffffffffffffff16815260200190815260200160002060008373ffffffffffffffffffffffffffffffffffffffff1673ffffffffffffffffffffffffffffffffffffffff16815260200190815260200160002060006101000a81548160ff02191690831515021790555060005b600160003373ffffffffffffffffffffffffffffffffffffffff1673ffffffffffffffffffffffffffffffffffffffff1681526020019081526020016000208054905081101561049e578173ffffffffffffffffffffffffffffffffffffffff16600160003373ffffffffffffffffffffffffffffffffffffffff1673ffffffffffffffffffffffffffffffffffffffff16815260200190815260200160002082815481106103c6576103c56112b8565b5b9060005260206000200160000160009054906101000a900473ffffffffffffffffffffffffffffffffffffffff1673ffffffffffffffffffffffffffffffffffffffff160361048b576000600160003373ffffffffffffffffffffffffffffffffffffffff1673ffffffffffffffffffffffffffffffffffffffff1681526020019081526020016000208281548110610462576104616112b8565b5b9060005260206000200160000160146101000a81548160ff02191690831515021790555061049e565b808061049690611316565b915050610314565b5050565b60603373ffffffffffffffffffffffffffffffffffffffff168273ffffffffffffffffffffffffffffffffffffffff1614806105645750600260008373ffffffffffffffffffffffffffffffffffffffff1673ffffffffffffffffffffffffffffffffffffffff16815260200190815260200160002060003373ffffffffffffffffffffffffffffffffffffffff1673ffffffffffffffffffffffffffffffffffffffff16815260200190815260200160002060009054906101000a900460ff165b6105a3576040517f08c379a000000000000000000000000000000000000000000000000000000000815260040161059a906113bb565b60405180910390fd5b6000808373ffffffffffffffffffffffffffffffffffffffff1673ffffffffffffffffffffffffffffffffffffffff168152602001908152602001600020805480602002602001604051908101604052809291908181526020016000905b828210156106ad57838290600052602060002001805461062090610fff565b80601f016020809104026020016040519081016040528092919081815260200182805461064c90610fff565b80156106995780601f1061066e57610100808354040283529160200191610699565b820191906000526020600020905b81548152906001019060200180831161067c57829003601f168201915b505050505081526020019060010190610601565b505050509050919050565b6001600260003373ffffffffffffffffffffffffffffffffffffffff1673ffffffffffffffffffffffffffffffffffffffff16815260200190815260200160002060008373ffffffffffffffffffffffffffffffffffffffff1673ffffffffffffffffffffffffffffffffffffffff16815260200190815260200160002060006101000a81548160ff021916908315150217905550600360003373ffffffffffffffffffffffffffffffffffffffff1673ffffffffffffffffffffffffffffffffffffffff16815260200190815260200160002060008273ffffffffffffffffffffffffffffffffffffffff1673ffffffffffffffffffffffffffffffffffffffff16815260200190815260200160002060009054906101000a900460ff161561096e5760005b600160003373ffffffffffffffffffffffffffffffffffffffff1673ffffffffffffffffffffffffffffffffffffffff16815260200190815260200160002080549050811015610968578173ffffffffffffffffffffffffffffffffffffffff16600160003373ffffffffffffffffffffffffffffffffffffffff1673ffffffffffffffffffffffffffffffffffffffff1681526020019081526020016000208281548110610891576108906112b8565b5b9060005260206000200160000160009054906101000a900473ffffffffffffffffffffffffffffffffffffffff1673ffffffffffffffffffffffffffffffffffffffff16036109555760018060003373ffffffffffffffffffffffffffffffffffffffff1673ffffffffffffffffffffffffffffffffffffffff168152602001908152602001600020828154811061092c5761092b6112b8565b5b9060005260206000200160000160146101000a81548160ff021916908315150217905550610968565b808061096090611316565b9150506107df565b50610aff565b600160003373ffffffffffffffffffffffffffffffffffffffff1673ffffffffffffffffffffffffffffffffffffffff16815260200190815260200160002060405180604001604052808373ffffffffffffffffffffffffffffffffffffffff168152602001600115158152509080600181540180825580915050600190039060005260206000200160009091909190915060008201518160000160006101000a81548173ffffffffffffffffffffffffffffffffffffffff021916908373ffffffffffffffffffffffffffffffffffffffff16021790555060208201518160000160146101000a81548160ff02191690831515021790555050506001600360003373ffffffffffffffffffffffffffffffffffffffff1673ffffffffffffffffffffffffffffffffffffffff16815260200190815260200160002060008373ffffffffffffffffffffffffffffffffffffffff1673ffffffffffffffffffffffffffffffffffffffff16815260200190815260200160002060006101000a81548160ff0219169083151502179055505b50565b6000604051905090565b600080fd5b600080fd5b600073ffffffffffffffffffffffffffffffffffffffff82169050919050565b6000610b4182610b16565b9050919050565b610b5181610b36565b8114610b5c57600080fd5b50565b600081359050610b6e81610b48565b92915050565b600080fd5b600080fd5b6000601f19601f8301169050919050565b7f4e487b7100000000000000000000000000000000000000000000000000000000600052604160045260246000fd5b610bc782610b7e565b810181811067ffffffffffffffff82111715610be657610be5610b8f565b5b80604052505050565b6000610bf9610b02565b9050610c058282610bbe565b919050565b600067ffffffffffffffff821115610c2557610c24610b8f565b5b610c2e82610b7e565b9050602081019050919050565b82818337600083830152505050565b6000610c5d610c5884610c0a565b610bef565b905082815260208101848484011115610c7957610c78610b79565b5b610c84848285610c3b565b509392505050565b600082601f830112610ca157610ca0610b74565b5b8135610cb1848260208601610c4a565b91505092915050565b60008060408385031215610cd157610cd0610b0c565b5b6000610cdf85828601610b5f565b925050602083013567ffffffffffffffff811115610d0057610cff610b11565b5b610d0c85828601610c8c565b9150509250929050565b600081519050919050565b600082825260208201905092915050565b6000819050602082019050919050565b610d4b81610b36565b82525050565b60008115159050919050565b610d6681610d51565b82525050565b604082016000820151610d826000850182610d42565b506020820151610d956020850182610d5d565b50505050565b6000610da78383610d6c565b60408301905092915050565b6000602082019050919050565b6000610dcb82610d16565b610dd58185610d21565b9350610de083610d32565b8060005b83811015610e11578151610df88882610d9b565b9750610e0383610db3565b925050600181019050610de4565b5085935050505092915050565b60006020820190508181036000830152610e388184610dc0565b905092915050565b600060208284031215610e5657610e55610b0c565b5b6000610e6484828501610b5f565b91505092915050565b600081519050919050565b600082825260208201905092915050565b6000819050602082019050919050565b600081519050919050565b600082825260208201905092915050565b60005b83811015610ed3578082015181840152602081019050610eb8565b60008484015250505050565b6000610eea82610e99565b610ef48185610ea4565b9350610f04818560208601610eb5565b610f0d81610b7e565b840191505092915050565b6000610f248383610edf565b905092915050565b6000602082019050919050565b6000610f4482610e6d565b610f4e8185610e78565b935083602082028501610f6085610e89565b8060005b85811015610f9c5784840389528151610f7d8582610f18565b9450610f8883610f2c565b925060208a01995050600181019050610f64565b50829750879550505050505092915050565b60006020820190508181036000830152610fc88184610f39565b905092915050565b7f4e487b7100000000000000000000000000000000000000000000000000000000600052602260045260246000fd5b6000600282049050600182168061101757607f821691505b60208210810361102a57611029610fd0565b5b50919050565b60008190508160005260206000209050919050565b60006020601f8301049050919050565b600082821b905092915050565b6000600883026110927fffffffffffffffffffffffffffffffffffffffffffffffffffffffffffffffff82611055565b61109c8683611055565b95508019841693508086168417925050509392505050565b6000819050919050565b6000819050919050565b60006110e36110de6110d9846110b4565b6110be565b6110b4565b9050919050565b6000819050919050565b6110fd836110c8565b611111611109826110ea565b848454611062565b825550505050565b600090565b611126611119565b6111318184846110f4565b505050565b5b818110156111555761114a60008261111e565b600181019050611137565b5050565b601f82111561119a5761116b81611030565b61117484611045565b81016020851015611183578190505b61119761118f85611045565b830182611136565b50505b505050565b600082821c905092915050565b60006111bd6000198460080261119f565b1980831691505092915050565b60006111d683836111ac565b9150826002028217905092915050565b6111ef82610e99565b67ffffffffffffffff81111561120857611207610b8f565b5b6112128254610fff565b61121d828285611159565b600060209050601f831160018114611250576000841561123e578287015190505b61124885826111ca565b8655506112b0565b601f19841661125e86611030565b60005b8281101561128657848901518255600182019150602085019450602081019050611261565b868310156112a3578489015161129f601f8916826111ac565b8355505b6001600288020188555050505b505050505050565b7f4e487b7100000000000000000000000000000000000000000000000000000000600052603260045260246000fd5b7f4e487b7100000000000000000000000000000000000000000000000000000000600052601160045260246000fd5b6000611321826110b4565b91507fffffffffffffffffffffffffffffffffffffffffffffffffffffffffffffffff8203611353576113526112e7565b5b600182019050919050565b600082825260208201905092915050565b7f596f7520646f6e27742068617665206163636573730000000000000000000000600082015250565b60006113a560158361135e565b91506113b08261136f565b602082019050919050565b600060208201905081810360008301526113d481611398565b905091905056fea26469706673582212204308ddc67bc13559b7156570a5dc92e24414a822e82320d46ac1afb7acc0d9e964736f6c63430008110033",
  "linkReferences": {},
  "deployedLinkReferences": {}
}